:020000040800F2
:1000000000800120791C0008151C0008171C00083E
:10001000191C00081B1C00081D1C00080000000023
:1000200000000000000000000000000011100008A7
:100030001F1C000800000000A110000805110008A6
:10004000C91C0008C91C0008C91C0008C91C0008FC
:10005000C91C0008C91C0008C91C0008C91C0008EC
:10006000C91C0008C91C0008C91C0008C91C0008DC
:10007000C91C0008C91C0008C91C0008C91C0008CC
:10008000C91C0008C91C0008C91C000800000000A9
:10009000000000000000000000000000C91C000873
:1000A000C91C0008211C0008C91C0008C91C000844
:1000B000C91C0008C91C0008C91C0008C91C00088C
:1000C000C91C0008C91C0008C91C0008C91C00087C
:1000D000C91C0008C91C0008C91C00080000000059
:1000E000C91C0008C91C0008C91C00080000000049
:1000F000000000000000000000000000C91C000813
:1001000000000000C91C0008C91C0008C91C000828
:1001100000000000000000000000000000000000DF
:10012000C91C0008C91C0008C91C0008C91C00081B
:10013000C91C0008000000000000000000000000D2
:10014000000000000000000000000000C91C0008C2
:10015000C91C0008C91C0008C91C0008C91C0008EB
:10016000C91C0008C91C00080000000000000000B5
:10017000000000000000000000000000000000007F
:1001800000000000C91C0008000000000000000082
:04019000C91C00087E
:1001A00010B5054C237833B9044B13B10448AFF3B1
:1001B00000800123237010BD0C000020000000000F
:1001C000241D000808B5034B1BB103490348AFF3D6
:1001D000008008BD0000000010000020241D000861
:1001E00053B94AB9002908BF00281CBF4FF0FF319E
:1001F0004FF0FF3000F07AB9ADF1080C6DE904CE94
:1002000000F006F8DDF804E0DDE9022304B07047F1
:100210002DE9F0478C460D460446089E002B51D12F
:100220008A4217466DD9B2FA82FEBEF1000F0BD09A
:10023000CEF1200C01FA0EF520FA0CFC02FA0EF7B2
:100240004CEA050C00FA0EF44FEA174A250CBCFBE9
:10025000FAF81FFA87F90AFB18CC45EA0C4508FBA7
:1002600009F3AB420AD9ED1908F1FF3280F023817E
:10027000AB4240F22081A8F102083D44ED1AA4B23D
:10028000B5FBFAF00AFB105544EA054400FB09F9F6
:10029000A14509D9E41900F1FF3380F00A81A14595
:1002A00040F2078102383C44A4EB090440EA0840CC
:1002B0000021002E61D024FA0EF400233460736014
:1002C000BDE8F0878B4207D9002E54D0002186E884
:1002D00021000846BDE8F087B3FA83F1002940F019
:1002E0008E80AB4202D3824200F2FA80841A65EB20
:1002F00003050120AC46002E3FD086E81010BDE873
:10030000F08712B90127B7FBF2F7B7FA87FEBEF103
:10031000000F34D1EB1B3A0C1FFA87FC0121B3FB11
:10032000F2F8250C02FB183345EA03450CFB08F3F1
:10033000AB4207D9ED1908F1FF3002D2AB4200F20F
:10034000D1808046ED1AA3B2B5FBF2F002FB105546
:1003500043EA05440CFB00FCA44507D9E41900F16D
:10036000FF3302D2A44500F2B8801846A4EB0C0477
:1003700040EA08409DE731463046BDE8F087CEF1BF
:10038000200405FA0EF307FA0EF720FA04F83A0CE7
:1003900025FA04F448EA0308B4FBF2F14FEA1845E1
:1003A00002FB11441FFA87FC45EA044501FB0CF3EC
:1003B000AB4200FA0EF409D9ED1901F1FF3080F0DB
:1003C0008A80AB4240F2878002393D44EB1A1FFA23
:1003D00088F5B3FBF2F002FB103345EA034500FB5E
:1003E0000CF3AB4207D9ED1900F1FF386FD2AB42E5
:1003F0006DD902383D44EB1A40EA01418FE7C1F163
:10040000200722FA07F88B4005FA01F448EA0303B3
:1004100020FA07FE4FEA134CFD404EEA040EB5FBEE
:10042000FCF94FEA1E440CFB19551FFA83F844EA05
:10043000054509FB08F4AC4202FA01F200FA01FAA0
:1004400008D9ED1809F1FF3043D2AC4241D9A9F1E6
:1004500002091D442D1B1FFA8EFEB5FBFCF00CFBA0
:1004600010554EEA054400FB08F8A04507D9E418EA
:1004700000F1FF3529D2A04527D902381C4440EAB3
:100480000940A4EB0804A0FB02894C45C6464D4632
:1004900015D312D056B1BAEB0E0364EB050404FA7F
:1004A00007F7CB401F43CC40376074600021BDE8A4
:1004B000F0871846F8E69046E0E6C245EAD2B8EB87
:1004C000020E69EB03050138E4E72846D7E740460A
:1004D00091E78146BEE7014678E702383C4445E7AC
:1004E000084608E7A8F102083D442BE7704700BF23
:1004F00008B50B4B1A6842F400721A601A6842F48D
:1005000080621A601A6842F480721A60032000F058
:100510001BF8002001F042FB01F01EFB002008BD8B
:10052000003C0240034A044B11681B780B441360E3
:10053000704700BF743D002000000020014B186888
:10054000704700BF743D0020074AD36823F4E0637E
:100550001B041B0C43F0BF63000243F4003300F4A0
:10056000E0600343D360704700ED00E0174B30B507
:10057000DC68C4F30224C4F10703251D042B28BF43
:100580000423062D4FF0010505FA03F303F1FF33B1
:100590008CBF033C00241940A14005FA04F4013C3F
:1005A0002240002842EA01024FEA0212AFBF00F1E6
:1005B000604000F00F00064BD2B2A5BF00F56140CD
:1005C000D2B21A5480F8002330BD00BF00ED00E025
:1005D00014ED00E04209012300F01F0003FA00F0CF
:1005E000014B43F82200704700E100E02DE9F04F95
:1005F00085B00B68DFF89C81644A01934FF00109D4
:100600000023019C09FA03F707EA0406B74240F009
:10061000AD804C6824F0100ABAF1020F16D14FEAEF
:10062000D30C00EB8C0C03F0070BDCF820504FEAE6
:100630008B0B4FF00F0E0EFA0BFE25EA0E0E0D6916
:1006400005FA0BF545EA0E05CCF820504FEA430CAD
:100650000325D0F800B005FA0CF5ED4304F0030EC5
:100660000BEA050B0EFA0CFE0AF1FF3A4EEA0B0EEE
:10067000BAF1010F0095C0F800E015D8D0F808E0F5
:1006800005EA0E0ECD6805FA0CFA4AEA0E0EC0F81D
:1006900008E0D0F804E02EEA0707C4F3001E0EFAC3
:1006A00003FE4EEA07074760C768009D3D408F681C
:1006B00007FA0CF73D43C560E50057D54FF0000B36
:1006C000CDF80CB0D8F84470314D47F48047C8F8E5
:1006D0004470D8F8447007F480470397039F23F0D1
:1006E000030707F1804707F59C3703F0030CD7F8A1
:1006F00008A04FEA8C0C4FF00F0E0EFA0CFEA84229
:100700002AEA0E0E39D005F58065A84237D005F5E6
:100710008065A84235D005F58065A84233D005F53F
:100720008065A84214BF0725042505FA0CF545EAA3
:100730000E05BD601568F74314F4803F0CBF3D40C3
:1007400035431560556814F4003F0CBF3D403543F8
:100750005560956814F4801F0CBF3D40354395608B
:10076000D568A40254BF3D403543D5600133102BFA
:100770007FF447AF05B0BDE8F08F5D46D5E70125B2
:10078000D3E70225D1E70325CFE700BF003C0140B6
:1007900000000240003802404369594041617047FF
:1007A0002DE9F341044618B9012002B0BDE8F081FB
:1007B0000368DD0710D42368980758D423681A0704
:1007C00000F19A8023685B0700F1B880A269002AD3
:1007D00040F019810020E8E7A64B9A6802F00C026D
:1007E000042A07D09A6802F00C02082A0AD15B6832
:1007F000590207D59F4B1B689A03DCD56368002B11
:10080000D9D1D1E763689B4DB3F5803F11D12B68F7
:1008100043F480332B60FFF791FE964D06462B681C
:100820009B03C8D4FFF78AFE801B6428F7D90320F6
:10083000BBE7B3F5A02F04D12B6843F480232B60D2
:10084000E5E72A6822F480322A602A6822F48022AE
:100850002A60002BDFD1FFF771FE06462B689F034D
:10086000A9D5FFF76BFE801B6428F7D9DFE7814B22
:100870009A6812F00C0F07D09A6802F00C02082A4E
:1008800011D15B685E020ED47A4B1A68950702D5C7
:10089000E268012A88D11A68216922F0F80242EA46
:1008A000C1021A608AE7E268734BB2B101221A6092
:1008B000FFF744FE6F4D06462B68980707D52B6857
:1008C000226923F0F80343EAC2032B6076E7FFF7BF
:1008D00035FE801B0228EFD9A9E71A60FFF72EFE2C
:1008E000644D06462B6899077FF568AFFFF726FE33
:1008F000801B0228F6D99AE76269604B7AB101221F
:100900001A60FFF71BFE5B4D06466B6F9F073FF5B6
:1009100059AFFFF713FE801B0228F6D987E71A604C
:10092000FFF70CFE534D06466B6F98077FF54AAFF5
:10093000FFF704FE801B0228F6D978E74D4B1A6CAE
:1009400012F0805228D101921A6C42F080521A643F
:100950001B6C03F080530193019B0126484D2B68CB
:10096000D9051BD5A368434D012B27D12B6F43F02D
:1009700001032B67FFF7E2FD3E4D074641F2883841
:100980002B6F9B0739D5002E3FF420AF394A136CEB
:1009900023F08053136419E70026DFE72B6843F444
:1009A00080732B60FFF7CAFD07462B68DA05D9D4A0
:1009B000FFF7C4FDC01B0228F7D938E7052B04D187
:1009C0002B6F43F004032B67D0E72A6F22F001025C
:1009D0002A672A6F22F004022A67002BCAD1FFF788
:1009E000ADFD41F2883807462B6F9807CBD5FFF74E
:1009F000A5FDC01B4045F7D919E7FFF79FFDC01BB8
:100A00004045BDD913E71B4DAB6803F00C03082B21
:100A10003FF4CAAE1B4E0023022A336034D1FFF7E5
:100A20008DFD07462B6899011ED4226AE3691343A2
:100A3000626A43EA8213E26A43EA0263A26A0D4CE5
:100A40005208013A43EA02436B6001233360FFF727
:100A500075FD054623689A013FF5BCAEFFF76EFDB4
:100A6000401B0228F6D9E2E6FFF768FDC01B02280A
:100A7000D8D9DCE60038024000004742800E4742E9
:100A80000070004060004742FFF758FD04462B68A5
:100A90009B017FF59FAEFFF751FD001B0228F6D9A1
:100AA000C5E600BF134908B58B6803F00C03042B9F
:100AB00003D0082B03D0104808BD104808BD4A6871
:100AC0004B68496813F4800314BF0C480A48C1F30B
:100AD000881118BF002302F03F02A1FB0001FFF7BD
:100AE0007FFB044B5B68C3F3014301335B00B0FB46
:100AF000F3F008BD003802400024F40040787D0186
:100B00002DE9F0410D46044610B90120BDE8F08101
:100B1000444B1A6802F00F028A4228D321688F07DB
:100B20002DD4C80740D43F4B1A6802F00F029542FB
:100B300066D3226851076CD4130707D53A4A216956
:100B4000936823F4604343EAC1039360FFF7AAFF6D
:100B5000354B364A9B68C3F30313D35CD840344B00
:100B60001860002001F01AF80020BDE8F081CAB238
:100B70001A701B6803F00F039942C6D1CEE72A4BC7
:100B800011F0040F1EBF9A6842F4E0529A600E07FB
:100B900042BF9A6842F460429A609A68A06822F064
:100BA000F00202439A60BCE762681F4B012A1DD124
:100BB0001B6813F4003FA8D01B4EB36823F0030357
:100BC0001343B360FFF7BAFC41F288380746B368B5
:100BD000626803F00C03B3EB820FA4D0FFF7AEFC06
:100BE000C01B4045F3D90320BDE8F081911E0129C7
:100BF0001B6802D813F0007FDDE713F0020FDAE77D
:100C0000EAB21A701B6803F00F039D427FF47DAFB8
:100C10008FE70549E0688B6823F4E05303438B605A
:100C20008AE700BF003C024000380240611D000816
:100C300008000020044B054A9B68C3F34233D35C91
:100C4000034A1068D840704700380240711D000800
:100C5000080000200F2303600B4B9A6802F0030288
:100C600042609A6802F0F00282609A6802F4E052F0
:100C7000C2609B68DB0803F4E0530361034B1B680D
:100C800003F00F030B60704700380240003C024045
:100C900070470368DA6842F00102DA601A6842F0CD
:100CA00001021A6000207047704770477047704714
:100CB00003681A69910710B504460ED5DA689207E1
:100CC0000BD56FF002021A619B6901229B07027625
:100CD00077D0FFF7EAFF0023237623681A695007CD
:100CE00010D5DA6851070DD56FF004021A619B69BF
:100CF000022213F4407F2276204668D0FFF7D5FF0A
:100D00000023237623681A6912070FD5DA681007C3
:100D10000CD56FF008021A61DB690422990722766C
:100D200020465AD0FFF7C1FF0023237623681A69B3
:100D3000D20610D5DA68D0060DD56FF010021A6110
:100D4000DB69082213F4407F227620464BD0FFF760
:100D5000ACFF0023237623681A69D10708D5DA6827
:100D6000D20705D56FF001021A61204600F0EAFEB5
:100D700023681A69100608D5DA68110605D56FF0E0
:100D800080021A61204600F09CF823681A69520616
:100D900008D5DA68500605D56FF040021A61204682
:100DA000FFF785FF23681A69910622D5DA68920653
:100DB0001FD56FF0200220461A61BDE8104000F0F8
:100DC0007FB8FFF771FF2046FFF770FF83E7FFF75B
:100DD0006BFF2046FFF76AFF92E7FFF765FF2046AB
:100DE000FFF764FFA0E7FFF75FFF2046FFF75EFF16
:100DF000AFE710BD224A036890420ED0B0F1804F99
:100E00000BD0A2F57C42904207D002F5806290425E
:100E100003D002F58062904219D14A6823F0700332
:100E20001343174A904204D1CA6823F44073134312
:100E300018E0B0F1804FF7D0124A9042F4D002F59A
:100E400080629042F0D002F580629042ECD00E4A6F
:100E50009042E9D002F580629042E5D002F58062CE
:100E60009042E1D003608B68C3620B688362044BDD
:100E7000984204BF0B69036301234361704700BFBD
:100E800000000140000400400040014010B504464D
:100E9000A0B190F8393003F0FF021BB980F8382078
:100EA000FFF7F6FE022384F839302068211DFFF792
:100EB000A1FF012384F83930002010BD012010BDAE
:100EC0007047704708B500F0CFFB002008BD30B573
:100ED000B0F90840028A0B4690E8220085B0842CC5
:100EE00014BF0334002403A801900094284600F0A6
:100EF000EBFA01280CBF0398002005B030BD00F1CB
:100F0000080343604FF0FF32C36003610023826037
:100F10000360704700230361704743684B609A6821
:100F20008A609A68516099600368086101330360C0
:100F300070470A68531C30B50AD103695A684A6081
:100F400091608B605960036808610133036030BDB4
:100F500000F108035C682568AA42EFD32346F9E74D
:100F60004168826803698A60826851605968884272
:100F700008BF5A6000220261186801381860704783
:100F80000A4B1B68013308D04FF0500383F31188DC
:100F9000BFF36F8FBFF34F8FFEE74FF0500383F324
:100FA0001188BFF36F8FBFF34F8FFEE7040000205F
:100FB00006480068006880F3088862B661B6BFF32F
:100FC0004F8FBFF36F8F00DF00BF000008ED00E020
:100FD000DFF80C00016841F4700101607047000007
:100FE00088ED00E04FF0807340F8043C074B40F878
:100FF0000C3C21F001016FF0020340F8081C40F89E
:10100000202C40F8243C4438704700BF810F000872
:10101000074B19680868B0E8F04F80F30988BFF300
:101020006F8F4FF0000080F311887047AFF300809E
:10103000483C00204FF0500383F31188BFF36F8FBB
:10104000BFF34F8F0A4A13680133012B13600DD190
:10105000084B1B6813F0FF0F08D04FF0500383F3C9
:101060001188BFF36F8FBFF34F8FFEE7704700BF4C
:101070000400002004ED00E0084A136843B94FF073
:10108000500383F31188BFF36F8FBFF34F8FFEE7D9
:10109000013B13600BB983F31188704704000020F3
:1010A000EFF30980BFF36F8F154B1A681EF0100F16
:1010B00008BF20ED108A20E9F04F10604DF8043D84
:1010C0004FF0500080F31188BFF34F8FBFF36F8F45
:1010D00000F076FC4FF0000080F3118808BC19681E
:1010E0000868B0E8F04F1EF0100F08BFB0EC108A8F
:1010F00080F30988BFF36F8F704700BFAFF30080A4
:10110000483C002008B54FF0500383F31188BFF32B
:101110006F8FBFF34F8F00F0EBFA18B1034B4FF016
:1011200080521A60002383F3118808BD04ED00E0AB
:10113000064B4FF47A721B68B3FBF2F3044A013B8F
:101140001360044B07221A60704700BF080000209C
:1011500014E000E010E000E0314B324A13B51968AA
:10116000914208D14FF0500383F31188BFF36F8F82
:10117000BFF34F8FFEE71A682B4B9A4208D14FF00E
:10118000500383F31188BFF36F8FBFF34F8FFEE7D8
:10119000264B1A78D2B20192FF221A701B78244A89
:1011A000DBB28DF803309DF8033003F05003137069
:1011B000204B07221A6000219DF80300000602F16F
:1011C000FF3423D401B11A601A68120202F4E062FB
:1011D0001A60019B154ADBB21370174B1A6842F470
:1011E00070021A601A6842F070421A60FFF7A0FF9E
:1011F000124B00221A60FFF7EBFE114A136843F00E
:1012000040431360FFF7D4FEFFF7BAFE9DF80320BA
:101210005200D2B28DF8032001212246CCE700BF54
:1012200000ED00E071C20F4170C20F4100E400E028
:10123000280000202C00002020ED00E00400002009
:1012400034EF00E010B50F4B1A68824218D35C6887
:101250001919884201BF4168184609195960446844
:1012600001198A4207D1084909688A421FBF51689B
:101270001268091941609842026018BF186010BDD9
:101280001346E1E7403C0020300000202DE9F0410A
:10129000044600F025FA3E493E4D0B680BBB3E4A22
:1012A00056071FBFD01D20F0070002F570531B1A10
:1012B00014BF02464FF470531344083B23F0070356
:1012C000364E0B6000207060326058601860981ACB
:1012D0001360334B50601860324B18604FF000437E
:1012E0002B602F68274216D1002C41D004F108034F
:1012F00058071CBF23F00703083363B1294A166857
:10130000B342904607D8254A15686868834204D8D6
:1013100009688D4207D100242AE02C68002CF7D000
:101320002A462546F1E7296814681160C21A102A76
:101330000FD9E818410708D04FF0500383F3118804
:10134000BFF36F8FBFF34F8FFEE742606B60FFF715
:1013500079FF13496B680868F61A1F4386424FF0FD
:101360000003C8F8006038BF0E6008346F602B605F
:1013700000F050FA630708D04FF0500383F3118850
:10138000BFF36F8FBFF34F8FFEE72046BDE8F081BC
:1013900030000020343C002034000020403C00207D
:1013A0003C3C0020383C002010B5044670B3184A7D
:1013B00050F8043C1268134208D14FF0500383F3F5
:1013C0001188BFF36F8FBFF34F8FFEE750F8081CF3
:1013D00041B14FF0500383F31188BFF36F8FBFF318
:1013E0004F8FFEE723EA020340F8043C00F078F94F
:1013F000084A54F8043C1168A4F108000B44136037
:10140000FFF720FFBDE8104000F004BA10BD00BF98
:10141000343C0020383C0020064A13681968064B0B
:1014200019B94FF0FF321A6070471268D268D2685B
:101430005268F8E74C3C0020243D0020F8B51B4BD7
:101440001B4E1D680446306804300F46FFF788FDC8
:10145000334640B93168174EC96A32680120884066
:1014600022EA00023260621C07D137B119681248C3
:101470000431BDE8F840FFF750BD2C441A68A5427E
:10148000546007D90D4A10681968BDE8F840043166
:10149000FFF74FBD0A4A106819680431FFF749FD8C
:1014A000084B1A68944238BF1C60F8BD6C3D0020A0
:1014B000483C0020F43C0020443D0020503C0020EB
:1014C0004C3C0020243D00202DE9F84F4FEA820AD1
:1014D000804650460F4699460B9EFFF7D7FE0546BD
:1014E000002800F096805420FFF7D0FE0446002824
:1014F00000F08C80AAF1040A056355447B1E25F098
:10150000070A00F134020F37597802F8011B13F86B
:10151000011F09B1BB42F7D10A9D062D28BF062540
:101520004FF0000B271DE5626564384684F843B030
:10153000C4F848B0FFF7EEFCC5F1070504F1180048
:10154000FFF7E8FCC4F84CB02461A561646284F83C
:1015500050B04A4641465046FFF744FD206006B170
:101560003460FFF767FD324B324E1A68DFF8F080C7
:1015700001321A603568002D4ED134601B68012B92
:101580001DD108EB05001435FFF7B9FC8C2DF8D1FF
:10159000DFF8D090284D4846FFF7B1FC2846FFF70A
:1015A000AEFC2648FFF7ABFC2548FFF7A8FC254812
:1015B000FFF7A5FC244BC3F80090244B1D60244A80
:1015C00024491368086801331360E26A012505FAAB
:1015D00002F3034314200B6000FB02803946FFF73F
:1015E0009CFCFFF749FD1C4B1B6863B13368DA6A4A
:1015F000E36A9A4207D2194B4FF080521A60BFF348
:101600004F8FBFF36F8F2846BDE8F88F2846FFF74E
:10161000CBFE4FF0FF35F6E70F4B1B68002BCED10A
:101620003368DA6AE36A9A4298BF3460C7E700BF5A
:10163000E03C0020483C00200C3D00202C3D0020D8
:10164000583D0020443D00204C3C0020503C0020F0
:10165000F03C0020F43C0020403D002004ED00E080
:10166000543C0020F83C002013B5174B0193002494
:1016700000942346802215491548FFF725FF0128CD
:1016800014D14FF0500383F31188BFF36F8FBFF372
:101690004F8F104B4FF0FF321A600F4B18600F4BFB
:1016A0001C6002B0BDE81040FFF756BD013008D104
:1016B0004FF0500383F31188BFF36F8FBFF34F8F49
:1016C000FEE702B010BD00BF203D0020501D000805
:1016D0004D190008243D0020403D00206C3D0020B5
:1016E000024A136801331360704700BFEC3C0020CE
:1016F0002DE9F84F3C4B1B68002B53D13B4B1C682A
:1017000001341C60BCB93A4B1A68126842B14FF000
:10171000500383F31188BFF36F8FBFF34F8FFEE742
:10172000344A1968106818601160334A136801332D
:101730001360FFF771FE314D314F2B689C424FF023
:10174000000B3ED3DFF8A880DFF8C490D8F8002063
:10175000126872BB4FF0FF322A6032E006F1040AD1
:101760005046FFF7FDFBB16A19B106F11800FFF70B
:10177000F7FBF06AD9F80030012202FA00F11943B0
:10178000204BC9F800104FF0140E51460EFB0030EC
:10179000FFF7C3FB3868F16AC26A914228BF4FF075
:1017A000010BD3E7184A1368013313604FF0000BA5
:1017B00011E0D8F80020D268D66871688C42CDD28A
:1017C00029603A680F4BD16A14224A439A58022A78
:1017D00028BF4FF0010B0D4A1268002A18BF4FF0C6
:1017E000010B5846BDE8F88FEC3C00206C3D002012
:1017F0004C3C0020503C0020283D0020243D00208F
:10180000483C0020543C0020E83C0020703D002073
:10181000F43C00202DE9F843314C236843B94FF0E4
:10182000500383F31188BFF36F8FBFF34F8FFEE731
:10183000FFF700FC2368013B236024682CB10024DF
:10184000FFF71AFC2046BDE8F883264B1B68002BE7
:10185000F5D0DFF8A890244FDFF8A480D9F8003045
:10186000E3B90CB1FFF7D8FD204D2C6844B1204EF0
:101870000127FFF73DFF00B13760013CF9D12C6033
:101880001B4B1B68002BDAD01A4B4FF080521A60AA
:10189000BFF34F8FBFF36F8F0124D1E7D9F80C301E
:1018A000DC68261D04F11800FFF75AFB3046FFF7ED
:1018B00057FBE26A3968012505FA02F314200B434D
:1018C00000FB028031463B60FFF727FB0A4BE26AD0
:1018D0001B68DB6A9A4224BF054B1D60BEE700BF50
:1018E000EC3C0020E03C0020F43C0020E83C0020E0
:1018F000703D002004ED00E0483C00202C3D00201D
:10190000543C002008B540B90E4B4FF080521A608D
:10191000BFF34F8FBFF36F8F08BD0B4B196841B1F9
:101920004FF0500383F31188BFF36F8FBFF34F8FD6
:10193000FEE7FFF7D5FEFFF781FDFFF76BFF0028FD
:10194000E2D008BD04ED00E0EC3C002008B5174EE5
:10195000174C236863B9174B1B68012BF8D9164B3A
:101960004FF080521A60BFF34F8FBFF36F8FEFE7D6
:10197000FFF7B6FE3568FFF74DFF002DE9D0FFF702
:1019800059FBF368DD68281DFFF7EAFA0B4A136874
:10199000013B13602368013B2360FFF76DFB286B5D
:1019A000FFF702FD2846FFF7FFFCD2E7583D002075
:1019B000E43C0020543C002004ED00E0E03C00202A
:1019C000174B1A68174B10B512B101221A6010BDDF
:1019D0001A60154B1B68B3FA83F3DBB2C3F11F0324
:1019E000142212495A4388188C5844B94FF05003B6
:1019F00083F31188BFF36F8FBFF34F8FFEE7446807
:101A00000832646844600A44944204BF62684260D9
:101A1000142202FB03135B68DA68054BD6E700BFAC
:101A2000EC3C0020703D0020F43C0020543C0020A1
:101A3000483C002008B5054C20462021FEF7ACFEAE
:101A40004FF47A70FFF75EFFF6E700BF0000024038
:101A500030B595B03022002108A800F05BF90021D4
:101A6000142203A800F056F900251C4B01951A6CAE
:101A700042F080521A641B6C194A03F080530193A0
:101A8000019B0295136823F4404343F40043136021
:101A900013680F9503F440430293029B01230B93B9
:101AA00010230C930823109354230224119308A8A5
:101AB0000423139308940E941294FEF771FE0F23DF
:101AC000039321464FF4805303A80494059506938D
:101AD0000795FFF715F815B030BD00BF003802407C
:101AE000007000407FB5FEF703FD0026FFF7B0FF52
:101AF000104B00961A6B104D104842F001021A6309
:101B00001B6B03F001030093009B2023019301A9A9
:101B100001230293FEF76AFD0FCD01AC0FC42B68C1
:101B20002360314601A8FFF7D2F9054B1860FFF793
:101B3000C9F9FEE7003802403C1D000800000240E1
:101B4000783D00200268034B9A4201D1FEF7EABCBF
:101B5000704700BF0000014007B50F4B0022009204
:101B6000596C41F480415964596C01F480410091F1
:101B700000990192196C41F0805119641B6C03F0BB
:101B8000805301930F216FF00100019BFEF7EEFCE3
:101B900003B05DF804FB00BF0038024030B50146D9
:101BA00089B000221920FEF7E1FC1920FEF712FD92
:101BB0000025144B02955A6C134C42F001025A64F2
:101BC0005B6C03F00103029301A903A8029BFFF7DA
:101BD00041F8FFF72FF80D4B236040F2E733E36045
:101BE0000B4BB0FBF3F00138606020462561A56027
:101BF000FFF74CF920B92046FFF74BF809B030BD8C
:101C00000120FBE7003802407C3D0020000001403D
:101C100040420F007047FEE7FEE7FEE7FEE7704731
:101C20000148FFF745B800BF7C3D00200F49D1F8BF
:101C3000883043F47003C1F888300D4B1A680020D7
:101C400042F001021A6098601A6822F0847222F44D
:101C500080321A60074A5A601A6822F480221A6099
:101C6000D8604FF000638B60704700BF00ED00E06C
:101C70000038024010300024DFF834D0002103E0A7
:101C80000C4B5B58435004310B480C4B42189A42A2
:101C9000F6D30B4A02E0002342F8043B094B9A4278
:101CA000F9D3FFF7C3FF00F011F8FFF71BFF7047F0
:101CB000008001208C1D0008000000200C00002086
:101CC0000C000020B83D0020FEE7000070B50D4E6E
:101CD0000D4CA41BA4100025A54209D10B4E0C4CA1
:101CE00000F020F8A41BA4100025A54205D170BD6A
:101CF00056F8253098470135EEE756F825309847D5
:101D00000135F2E7841D0008841D0008841D0008C9
:101D1000881D000802440346934200D1704703F82F
:101D2000011BF9E7F8B500BFF8BC08BC9E46704738
:0C1D3000F8B500BFF8BC08BC9E46704728
:101D3C00551D0008351A00080000000000000000C6
:101D4C008000000049444C450064656661756C7404
:101D5C005461736B000000000000000000010203DE
:101D6C00040607080900000000010203040000003B
:081D7C0094E4FF7F0100000068
:041D8400C50100088D
:041D8800A1010008AD
:0C1D8C0001000000AAAAAAAA0024F4008A
:0400000508001C795A
:00000001FF
